Archive member included because of file (symbol)

C:/Users/Kira Kira/workspace_v7/EK-TM4C123GXL_core/Debug\libEK-TM4C123GXL_core.a(startup_gcc.o)
                              (ResetISR)
C:/Users/Kira Kira/workspace_v7/EK-TM4C123GXL_core/Debug\libEK-TM4C123GXL_core.a(WInterrupts.o)
                              C:/Users/Kira Kira/workspace_v7/EK-TM4C123GXL_core/Debug\libEK-TM4C123GXL_core.a(startup_gcc.o) (GPIOAIntHandler)
C:/Users/Kira Kira/workspace_v7/EK-TM4C123GXL_core/Debug\libEK-TM4C123GXL_core.a(wiring.o)
                              C:/Users/Kira Kira/workspace_v7/EK-TM4C123GXL_core/Debug\libEK-TM4C123GXL_core.a(startup_gcc.o) (SysTickIntHandler)
C:/Users/Kira Kira/workspace_v7/EK-TM4C123GXL_core/Debug\libEK-TM4C123GXL_core.a(wiring_digital.o)
                              C:/Users/Kira Kira/workspace_v7/EK-TM4C123GXL_core/Debug\libEK-TM4C123GXL_core.a(WInterrupts.o) (digital_pin_to_bit_mask)
C:/Users/Kira Kira/workspace_v7/EK-TM4C123GXL_core/Debug\libEK-TM4C123GXL_core.a(main.o)
                              C:/Users/Kira Kira/workspace_v7/EK-TM4C123GXL_core/Debug\libEK-TM4C123GXL_core.a(startup_gcc.o) (_init)
C:/Users/Kira Kira/AppData/Local/Energia15/packages/energia/hardware/tivac/1.0.2/system/driverlib\libdriverlib.a(adc.o)
                              ./LIB/ADC.o (ADCIntStatus)
C:/Users/Kira Kira/AppData/Local/Energia15/packages/energia/hardware/tivac/1.0.2/system/driverlib\libdriverlib.a(eeprom.o)
                              C:/Users/Kira Kira/workspace_v7/EK-TM4C123GXL_core/Debug\libEK-TM4C123GXL_core.a(main.o) (EEPROMMassErase)
C:/Users/Kira Kira/AppData/Local/Energia15/packages/energia/hardware/tivac/1.0.2/system/driverlib\libdriverlib.a(gpio.o)
                              C:/Users/Kira Kira/workspace_v7/EK-TM4C123GXL_core/Debug\libEK-TM4C123GXL_core.a(WInterrupts.o) (GPIOIntEnable)
C:/Users/Kira Kira/AppData/Local/Energia15/packages/energia/hardware/tivac/1.0.2/system/driverlib\libdriverlib.a(interrupt.o)
                              C:/Users/Kira Kira/AppData/Local/Energia15/packages/energia/hardware/tivac/1.0.2/system/driverlib\libdriverlib.a(adc.o) (IntRegister)
C:/Users/Kira Kira/AppData/Local/Energia15/packages/energia/hardware/tivac/1.0.2/system/driverlib\libdriverlib.a(pwm.o)
                              ./LIB/PWM.o (PWMGenConfigure)
C:/Users/Kira Kira/AppData/Local/Energia15/packages/energia/hardware/tivac/1.0.2/system/driverlib\libdriverlib.a(sysctl.o)
                              C:/Users/Kira Kira/AppData/Local/Energia15/packages/energia/hardware/tivac/1.0.2/system/driverlib\libdriverlib.a(eeprom.o) (SysCtlPeripheralReset)
C:/Users/Kira Kira/AppData/Local/Energia15/packages/energia/hardware/tivac/1.0.2/system/driverlib\libdriverlib.a(uart.o)
                              ./LIB/UART.o (UARTConfigSetExpClk)
C:/Users/Kira Kira/AppData/Local/Energia15/packages/energia/hardware/tivac/1.0.2/system/driverlib\libdriverlib.a(cpu.o)
                              C:/Users/Kira Kira/AppData/Local/Energia15/packages/energia/hardware/tivac/1.0.2/system/driverlib\libdriverlib.a(interrupt.o) (CPUcpsid)

Discarded input sections

 .text          0x00000000        0x0 ./LIB/HandJob.o
 .data          0x00000000        0x0 ./LIB/HandJob.o
 .bss           0x00000000        0x0 ./LIB/HandJob.o
 .text.HJ_Init  0x00000000        0xc ./LIB/HandJob.o
 .text.HJ_StringToHJ
                0x00000000       0x20 ./LIB/HandJob.o
 .debug_info    0x00000000      0x16c ./LIB/HandJob.o
 .debug_abbrev  0x00000000       0xec ./LIB/HandJob.o
 .debug_loc     0x00000000       0x13 ./LIB/HandJob.o
 .debug_aranges
                0x00000000       0x28 ./LIB/HandJob.o
 .debug_ranges  0x00000000       0x18 ./LIB/HandJob.o
 .debug_line    0x00000000       0x6e ./LIB/HandJob.o
 .debug_str     0x00000000      0x294 ./LIB/HandJob.o
 .comment       0x00000000       0x71 ./LIB/HandJob.o
 .ARM.attributes
                0x00000000       0x39 ./LIB/HandJob.o
 .debug_frame   0x00000000       0x34 ./LIB/HandJob.o
Memory Configuration

Name             Origin             Length             Attributes
flash            0x00000000         0x00040000         xr
ram              0x20000000         0x00008000         xrw
*default*        0x00000000         0xffffffff

Linker script and memory map

LOAD ./LIB/HandJob.o
LOAD ./AnalogInOutSerial.o
LOAD ./LIB/ADC.o
LOAD ./LIB/PWM.o
LOAD ./LIB/UART.o
LOAD ./main.o
START GROUP

.text           0x00000000      0xdf4
                0x00000000                . = ALIGN (0x4)
                0x00000000                _text = .
 *(.isr_vector)
 .isr_vector    0x00000000      0x26c C:/Users/Kira Kira/workspace_v7/EK-TM4C123GXL_core/Debug\libEK-TM4C123GXL_core.a(startup_gcc.o)
                0x00000000                g_pfnVectors
 *(.text .text* .gnu.linkonce.t.*)
 .text._Z11UART_configv
                0x0000026c       0x50 ./LIB/UART.o
                0x0000026c                UART_config()
 .text._Z13UART_SendCharc
                0x000002bc       0x2c ./LIB/UART.o
                0x000002bc                UART_SendChar(char)
 .text._Z15UART_SendStringPc
                0x000002e8       0x12 ./LIB/UART.o
                0x000002e8                UART_SendString(char*)
 *fill*         0x000002fa        0x2 
 .text._Z12UART_GetCharv
                0x000002fc       0x18 ./LIB/UART.o
                0x000002fc                UART_GetChar()
 .text._Z14UART_GetStringPct
                0x00000314       0x36 ./LIB/UART.o
                0x00000314                UART_GetString(char*, unsigned short)
 *fill*         0x0000034a        0x2 
 .text.startup.main
                0x0000034c       0x70 ./main.o
                0x0000034c                main
 .text.UARTIntHandler
                0x000003bc        0x2 C:/Users/Kira Kira/workspace_v7/EK-TM4C123GXL_core/Debug\libEK-TM4C123GXL_core.a(startup_gcc.o)
                0x000003bc                UARTIntHandler
 .text.UARTIntHandler1
                0x000003be        0x2 C:/Users/Kira Kira/workspace_v7/EK-TM4C123GXL_core/Debug\libEK-TM4C123GXL_core.a(startup_gcc.o)
                0x000003be                UARTIntHandler1
 .text.UARTIntHandler2
                0x000003c0        0x2 C:/Users/Kira Kira/workspace_v7/EK-TM4C123GXL_core/Debug\libEK-TM4C123GXL_core.a(startup_gcc.o)
                0x000003c0                UARTIntHandler2
 .text.UARTIntHandler3
                0x000003c2        0x2 C:/Users/Kira Kira/workspace_v7/EK-TM4C123GXL_core/Debug\libEK-TM4C123GXL_core.a(startup_gcc.o)
                0x000003c2                UARTIntHandler3
 .text.UARTIntHandler4
                0x000003c4        0x2 C:/Users/Kira Kira/workspace_v7/EK-TM4C123GXL_core/Debug\libEK-TM4C123GXL_core.a(startup_gcc.o)
                0x000003c4                UARTIntHandler4
 .text.UARTIntHandler5
                0x000003c6        0x2 C:/Users/Kira Kira/workspace_v7/EK-TM4C123GXL_core/Debug\libEK-TM4C123GXL_core.a(startup_gcc.o)
                0x000003c6                UARTIntHandler5
 .text.UARTIntHandler6
                0x000003c8        0x2 C:/Users/Kira Kira/workspace_v7/EK-TM4C123GXL_core/Debug\libEK-TM4C123GXL_core.a(startup_gcc.o)
                0x000003c8                UARTIntHandler6
 .text.UARTIntHandler7
                0x000003ca        0x2 C:/Users/Kira Kira/workspace_v7/EK-TM4C123GXL_core/Debug\libEK-TM4C123GXL_core.a(startup_gcc.o)
                0x000003ca                UARTIntHandler7
 .text.ToneIntHandler
                0x000003cc        0x2 C:/Users/Kira Kira/workspace_v7/EK-TM4C123GXL_core/Debug\libEK-TM4C123GXL_core.a(startup_gcc.o)
                0x000003cc                ToneIntHandler
 .text.I2CIntHandler
                0x000003ce        0x2 C:/Users/Kira Kira/workspace_v7/EK-TM4C123GXL_core/Debug\libEK-TM4C123GXL_core.a(startup_gcc.o)
                0x000003ce                I2CIntHandler
 .text.NmiSR    0x000003d0        0x2 C:/Users/Kira Kira/workspace_v7/EK-TM4C123GXL_core/Debug\libEK-TM4C123GXL_core.a(startup_gcc.o)
 .text.FaultISR
                0x000003d2        0x2 C:/Users/Kira Kira/workspace_v7/EK-TM4C123GXL_core/Debug\libEK-TM4C123GXL_core.a(startup_gcc.o)
 .text.IntDefaultHandler
                0x000003d4        0x2 C:/Users/Kira Kira/workspace_v7/EK-TM4C123GXL_core/Debug\libEK-TM4C123GXL_core.a(startup_gcc.o)
 *fill*         0x000003d6        0x2 
 .text.ResetISR
                0x000003d8       0x9c C:/Users/Kira Kira/workspace_v7/EK-TM4C123GXL_core/Debug\libEK-TM4C123GXL_core.a(startup_gcc.o)
                0x000003d8                ResetISR
 .text.GPIOXIntHandler
                0x00000474       0x2e C:/Users/Kira Kira/workspace_v7/EK-TM4C123GXL_core/Debug\libEK-TM4C123GXL_core.a(WInterrupts.o)
                0x00000474                GPIOXIntHandler
 *fill*         0x000004a2        0x2 
 .text.GPIOAIntHandler
                0x000004a4       0x10 C:/Users/Kira Kira/workspace_v7/EK-TM4C123GXL_core/Debug\libEK-TM4C123GXL_core.a(WInterrupts.o)
                0x000004a4                GPIOAIntHandler
 .text.GPIOBIntHandler
                0x000004b4       0x10 C:/Users/Kira Kira/workspace_v7/EK-TM4C123GXL_core/Debug\libEK-TM4C123GXL_core.a(WInterrupts.o)
                0x000004b4                GPIOBIntHandler
 .text.GPIOCIntHandler
                0x000004c4       0x10 C:/Users/Kira Kira/workspace_v7/EK-TM4C123GXL_core/Debug\libEK-TM4C123GXL_core.a(WInterrupts.o)
                0x000004c4                GPIOCIntHandler
 .text.GPIODIntHandler
                0x000004d4       0x10 C:/Users/Kira Kira/workspace_v7/EK-TM4C123GXL_core/Debug\libEK-TM4C123GXL_core.a(WInterrupts.o)
                0x000004d4                GPIODIntHandler
 .text.GPIOEIntHandler
                0x000004e4       0x10 C:/Users/Kira Kira/workspace_v7/EK-TM4C123GXL_core/Debug\libEK-TM4C123GXL_core.a(WInterrupts.o)
                0x000004e4                GPIOEIntHandler
 .text.GPIOFIntHandler
                0x000004f4       0x10 C:/Users/Kira Kira/workspace_v7/EK-TM4C123GXL_core/Debug\libEK-TM4C123GXL_core.a(WInterrupts.o)
                0x000004f4                GPIOFIntHandler
 .text.GPIOGIntHandler
                0x00000504       0x10 C:/Users/Kira Kira/workspace_v7/EK-TM4C123GXL_core/Debug\libEK-TM4C123GXL_core.a(WInterrupts.o)
                0x00000504                GPIOGIntHandler
 .text.GPIOHIntHandler
                0x00000514       0x10 C:/Users/Kira Kira/workspace_v7/EK-TM4C123GXL_core/Debug\libEK-TM4C123GXL_core.a(WInterrupts.o)
                0x00000514                GPIOHIntHandler
 .text.GPIOJIntHandler
                0x00000524       0x10 C:/Users/Kira Kira/workspace_v7/EK-TM4C123GXL_core/Debug\libEK-TM4C123GXL_core.a(WInterrupts.o)
                0x00000524                GPIOJIntHandler
 .text.GPIOKIntHandler
                0x00000534       0x10 C:/Users/Kira Kira/workspace_v7/EK-TM4C123GXL_core/Debug\libEK-TM4C123GXL_core.a(WInterrupts.o)
                0x00000534                GPIOKIntHandler
 .text.GPIOLIntHandler
                0x00000544       0x10 C:/Users/Kira Kira/workspace_v7/EK-TM4C123GXL_core/Debug\libEK-TM4C123GXL_core.a(WInterrupts.o)
                0x00000544                GPIOLIntHandler
 .text.GPIOMIntHandler
                0x00000554       0x10 C:/Users/Kira Kira/workspace_v7/EK-TM4C123GXL_core/Debug\libEK-TM4C123GXL_core.a(WInterrupts.o)
                0x00000554                GPIOMIntHandler
 .text.GPIONIntHandler
                0x00000564       0x10 C:/Users/Kira Kira/workspace_v7/EK-TM4C123GXL_core/Debug\libEK-TM4C123GXL_core.a(WInterrupts.o)
                0x00000564                GPIONIntHandler
 .text.GPIOPIntHandler
                0x00000574       0x10 C:/Users/Kira Kira/workspace_v7/EK-TM4C123GXL_core/Debug\libEK-TM4C123GXL_core.a(WInterrupts.o)
                0x00000574                GPIOPIntHandler
 .text.GPIOQIntHandler
                0x00000584       0x10 C:/Users/Kira Kira/workspace_v7/EK-TM4C123GXL_core/Debug\libEK-TM4C123GXL_core.a(WInterrupts.o)
                0x00000584                GPIOQIntHandler
 .text.timerInit
                0x00000594       0x58 C:/Users/Kira Kira/workspace_v7/EK-TM4C123GXL_core/Debug\libEK-TM4C123GXL_core.a(wiring.o)
                0x00000594                timerInit
 .text.SysTickIntHandler
                0x000005ec       0x28 C:/Users/Kira Kira/workspace_v7/EK-TM4C123GXL_core/Debug\libEK-TM4C123GXL_core.a(wiring.o)
                0x000005ec                SysTickIntHandler
 .text._init    0x00000614      0x138 C:/Users/Kira Kira/workspace_v7/EK-TM4C123GXL_core/Debug\libEK-TM4C123GXL_core.a(main.o)
                0x00000614                _init
 .text._EEPROMWaitForDone
                0x0000074c       0x10 C:/Users/Kira Kira/AppData/Local/Energia15/packages/energia/hardware/tivac/1.0.2/system/driverlib\libdriverlib.a(eeprom.o)
 .text._EEPROMSectorMaskClear
                0x0000075c       0x34 C:/Users/Kira Kira/AppData/Local/Energia15/packages/energia/hardware/tivac/1.0.2/system/driverlib\libdriverlib.a(eeprom.o)
 .text.EEPROMMassErase
                0x00000790       0x58 C:/Users/Kira Kira/AppData/Local/Energia15/packages/energia/hardware/tivac/1.0.2/system/driverlib\libdriverlib.a(eeprom.o)
                0x00000790                EEPROMMassErase
 .text.GPIODirModeSet
                0x000007e8       0x2e C:/Users/Kira Kira/AppData/Local/Energia15/packages/energia/hardware/tivac/1.0.2/system/driverlib\libdriverlib.a(gpio.o)
                0x000007e8                GPIODirModeSet
 .text.GPIOPadConfigSet
                0x00000816      0x12c C:/Users/Kira Kira/AppData/Local/Energia15/packages/energia/hardware/tivac/1.0.2/system/driverlib\libdriverlib.a(gpio.o)
                0x00000816                GPIOPadConfigSet
 .text.GPIOIntStatus
                0x00000942        0xe C:/Users/Kira Kira/AppData/Local/Energia15/packages/energia/hardware/tivac/1.0.2/system/driverlib\libdriverlib.a(gpio.o)
                0x00000942                GPIOIntStatus
 .text.GPIOIntClear
                0x00000950        0x6 C:/Users/Kira Kira/AppData/Local/Energia15/packages/energia/hardware/tivac/1.0.2/system/driverlib\libdriverlib.a(gpio.o)
                0x00000950                GPIOIntClear
 .text.GPIOPinWrite
                0x00000956        0x6 C:/Users/Kira Kira/AppData/Local/Energia15/packages/energia/hardware/tivac/1.0.2/system/driverlib\libdriverlib.a(gpio.o)
                0x00000956                GPIOPinWrite
 .text.GPIOPinTypeGPIOOutput
                0x0000095c       0x1c C:/Users/Kira Kira/AppData/Local/Energia15/packages/energia/hardware/tivac/1.0.2/system/driverlib\libdriverlib.a(gpio.o)
                0x0000095c                GPIOPinTypeGPIOOutput
 .text.GPIOPinTypeUART
                0x00000978       0x1c C:/Users/Kira Kira/AppData/Local/Energia15/packages/energia/hardware/tivac/1.0.2/system/driverlib\libdriverlib.a(gpio.o)
                0x00000978                GPIOPinTypeUART
 .text.GPIOPinConfigure
                0x00000994       0x48 C:/Users/Kira Kira/AppData/Local/Energia15/packages/energia/hardware/tivac/1.0.2/system/driverlib\libdriverlib.a(gpio.o)
                0x00000994                GPIOPinConfigure
 .text.SysCtlPeripheralReset
                0x000009dc       0x3c C:/Users/Kira Kira/AppData/Local/Energia15/packages/energia/hardware/tivac/1.0.2/system/driverlib\libdriverlib.a(sysctl.o)
                0x000009dc                SysCtlPeripheralReset
 .text.SysCtlPeripheralEnable
                0x00000a18       0x24 C:/Users/Kira Kira/AppData/Local/Energia15/packages/energia/hardware/tivac/1.0.2/system/driverlib\libdriverlib.a(sysctl.o)
                0x00000a18                SysCtlPeripheralEnable
 .text.SysCtlLDODeepSleepSet
                0x00000a3c        0xc C:/Users/Kira Kira/AppData/Local/Energia15/packages/energia/hardware/tivac/1.0.2/system/driverlib\libdriverlib.a(sysctl.o)
                0x00000a3c                SysCtlLDODeepSleepSet
 .text.SysCtlDeepSleepPowerSet
                0x00000a48        0xc C:/Users/Kira Kira/AppData/Local/Energia15/packages/energia/hardware/tivac/1.0.2/system/driverlib\libdriverlib.a(sysctl.o)
                0x00000a48                SysCtlDeepSleepPowerSet
 .text.SysCtlDelay
                0x00000a54        0x8 C:/Users/Kira Kira/AppData/Local/Energia15/packages/energia/hardware/tivac/1.0.2/system/driverlib\libdriverlib.a(sysctl.o)
                0x00000a54                SysCtlDelay
 .text.SysCtlClockSet
                0x00000a5c      0x12c C:/Users/Kira Kira/AppData/Local/Energia15/packages/energia/hardware/tivac/1.0.2/system/driverlib\libdriverlib.a(sysctl.o)
                0x00000a5c                SysCtlClockSet
 .text.SysCtlClockGet
                0x00000b88       0xd0 C:/Users/Kira Kira/AppData/Local/Energia15/packages/energia/hardware/tivac/1.0.2/system/driverlib\libdriverlib.a(sysctl.o)
                0x00000b88                SysCtlClockGet
 .text.UARTEnable
                0x00000c58       0x16 C:/Users/Kira Kira/AppData/Local/Energia15/packages/energia/hardware/tivac/1.0.2/system/driverlib\libdriverlib.a(uart.o)
                0x00000c58                UARTEnable
 .text.UARTDisable
                0x00000c6e       0x1c C:/Users/Kira Kira/AppData/Local/Energia15/packages/energia/hardware/tivac/1.0.2/system/driverlib\libdriverlib.a(uart.o)
                0x00000c6e                UARTDisable
 .text.UARTConfigSetExpClk
                0x00000c8a       0x48 C:/Users/Kira Kira/AppData/Local/Energia15/packages/energia/hardware/tivac/1.0.2/system/driverlib\libdriverlib.a(uart.o)
                0x00000c8a                UARTConfigSetExpClk
 .text.UARTCharsAvail
                0x00000cd2        0xc C:/Users/Kira Kira/AppData/Local/Energia15/packages/energia/hardware/tivac/1.0.2/system/driverlib\libdriverlib.a(uart.o)
                0x00000cd2                UARTCharsAvail
 .text.UARTCharGet
                0x00000cde        0xa C:/Users/Kira Kira/AppData/Local/Energia15/packages/energia/hardware/tivac/1.0.2/system/driverlib\libdriverlib.a(uart.o)
                0x00000cde                UARTCharGet
 .text.UARTCharPut
                0x00000ce8        0xa C:/Users/Kira Kira/AppData/Local/Energia15/packages/energia/hardware/tivac/1.0.2/system/driverlib\libdriverlib.a(uart.o)
                0x00000ce8                UARTCharPut
 *(.glue_7t)
 .glue_7t       0x00000000        0x0 linker stubs
 *(.glue_7)
 .glue_7        0x00000000        0x0 linker stubs
 *(.rodata .rodata* .gnu.linkonce.r.*)
 .rodata.str1.1
                0x00000cf2        0x5 ./main.o
 *fill*         0x00000cf7        0x1 
 .rodata.g_pui32GPIOBaseAddrs
                0x00000cf8       0x90 C:/Users/Kira Kira/AppData/Local/Energia15/packages/energia/hardware/tivac/1.0.2/system/driverlib\libdriverlib.a(gpio.o)
 .rodata.g_pui32Xtals
                0x00000d88       0x6c C:/Users/Kira Kira/AppData/Local/Energia15/packages/energia/hardware/tivac/1.0.2/system/driverlib\libdriverlib.a(sysctl.o)
 *(.ARM.extab* .gnu.linkonce.armextab.*)
                0x00000df4                . = ALIGN (0x4)
 *(.init)
                0x00000df4                . = ALIGN (0x4)
                0x00000df4                __preinit_array_start = .
 *(SORT(.preinit_array*))
 *(.preinit_array)
                0x00000df4                __preinit_array_end = .
                0x00000df4                . = ALIGN (0x4)
                0x00000df4                __init_array_start = .
 *(SORT(.init_array.*))
 *(.init_array)
                0x00000df4                __init_array_end = .
                0x00000df4                . = ALIGN (0x4)
 *(.fini)
                0x00000df4                . = ALIGN (0x4)
                0x00000df4                __fini_array_start = .
 *(.fini_array)
 *(SORT(.fini_array.*))
                0x00000df4                __fini_array_end = .
                0x00000df4                . = ALIGN (0x4)
                0x00000df4                _etext = .

.vfp11_veneer   0x00000df4        0x0
 .vfp11_veneer  0x00000000        0x0 linker stubs

.v4_bx          0x00000df4        0x0
 .v4_bx         0x00000000        0x0 linker stubs

.iplt           0x00000df4        0x0
 .iplt          0x00000000        0x0 ./LIB/HandJob.o

.rel.dyn        0x00000df4        0x0
 .rel.iplt      0x00000000        0x0 ./LIB/HandJob.o

.data           0x20000000        0x0 load address 0x00000df4
                0x20000000                . = ALIGN (0x4)
                0x20000000                _data = .
 *(vtable)
 *(.data .data* .gnu.linkonce.d.*)
                0x20000000                _edata = .

.igot.plt       0x20000000        0x0
 .igot.plt      0x00000000        0x0 ./LIB/HandJob.o

.bss            0x20000000      0x208
                0x20000000                . = ALIGN (0x4)
                0x20000000                _bss = .
 *(.bss .bss*)
 .bss.cbFuncsH  0x20000000       0x20 C:/Users/Kira Kira/workspace_v7/EK-TM4C123GXL_core/Debug\libEK-TM4C123GXL_core.a(WInterrupts.o)
 .bss.cbFuncsJ  0x20000020       0x20 C:/Users/Kira Kira/workspace_v7/EK-TM4C123GXL_core/Debug\libEK-TM4C123GXL_core.a(WInterrupts.o)
 .bss.cbFuncsK  0x20000040       0x20 C:/Users/Kira Kira/workspace_v7/EK-TM4C123GXL_core/Debug\libEK-TM4C123GXL_core.a(WInterrupts.o)
 .bss.cbFuncsL  0x20000060       0x20 C:/Users/Kira Kira/workspace_v7/EK-TM4C123GXL_core/Debug\libEK-TM4C123GXL_core.a(WInterrupts.o)
 .bss.cbFuncsM  0x20000080       0x20 C:/Users/Kira Kira/workspace_v7/EK-TM4C123GXL_core/Debug\libEK-TM4C123GXL_core.a(WInterrupts.o)
 .bss.cbFuncsN  0x200000a0       0x20 C:/Users/Kira Kira/workspace_v7/EK-TM4C123GXL_core/Debug\libEK-TM4C123GXL_core.a(WInterrupts.o)
 .bss.cbFuncsP  0x200000c0       0x20 C:/Users/Kira Kira/workspace_v7/EK-TM4C123GXL_core/Debug\libEK-TM4C123GXL_core.a(WInterrupts.o)
 .bss.cbFuncsQ  0x200000e0       0x20 C:/Users/Kira Kira/workspace_v7/EK-TM4C123GXL_core/Debug\libEK-TM4C123GXL_core.a(WInterrupts.o)
 .bss.cbFuncsA  0x20000100       0x20 C:/Users/Kira Kira/workspace_v7/EK-TM4C123GXL_core/Debug\libEK-TM4C123GXL_core.a(WInterrupts.o)
 .bss.cbFuncsB  0x20000120       0x20 C:/Users/Kira Kira/workspace_v7/EK-TM4C123GXL_core/Debug\libEK-TM4C123GXL_core.a(WInterrupts.o)
 .bss.cbFuncsC  0x20000140       0x20 C:/Users/Kira Kira/workspace_v7/EK-TM4C123GXL_core/Debug\libEK-TM4C123GXL_core.a(WInterrupts.o)
 .bss.cbFuncsD  0x20000160       0x20 C:/Users/Kira Kira/workspace_v7/EK-TM4C123GXL_core/Debug\libEK-TM4C123GXL_core.a(WInterrupts.o)
 .bss.cbFuncsE  0x20000180       0x20 C:/Users/Kira Kira/workspace_v7/EK-TM4C123GXL_core/Debug\libEK-TM4C123GXL_core.a(WInterrupts.o)
 .bss.cbFuncsF  0x200001a0       0x20 C:/Users/Kira Kira/workspace_v7/EK-TM4C123GXL_core/Debug\libEK-TM4C123GXL_core.a(WInterrupts.o)
 .bss.cbFuncsG  0x200001c0       0x20 C:/Users/Kira Kira/workspace_v7/EK-TM4C123GXL_core/Debug\libEK-TM4C123GXL_core.a(WInterrupts.o)
 .bss.SysTickCbFuncs
                0x200001e0       0x20 C:/Users/Kira Kira/workspace_v7/EK-TM4C123GXL_core/Debug\libEK-TM4C123GXL_core.a(wiring.o)
 .bss.milliseconds
                0x20000200        0x4 C:/Users/Kira Kira/workspace_v7/EK-TM4C123GXL_core/Debug\libEK-TM4C123GXL_core.a(wiring.o)
 *(COMMON)
                0x20000204                . = ALIGN (0x4)
                0x20000204                _ebss = .
                0x20000208                . = ALIGN (0x8)
 *fill*         0x20000204        0x4 
                0x20000208                PROVIDE (__exidx_start, .)

.ARM.exidx
 *(.ARM.exidx* .gnu.linkonce.armexidx.*)
                0x20000208                PROVIDE (__exidx_end, .)
                0x20000208                . = ALIGN (0x4)
                0x20000208                _end = .
                0x20000208                PROVIDE (end, _end)
                0x20008000                PROVIDE (_estack, (ORIGIN (ram) + 0x8000))
LOAD C:/Users/Kira Kira/workspace_v7/EK-TM4C123GXL_core/Debug\libEK-TM4C123GXL_core.a
LOAD C:/Users/Kira Kira/AppData/Local/Energia15/packages/energia/hardware/tivac/1.0.2/system/driverlib\libdriverlib.a
LOAD c:/users/kira kira/appdata/local/energia15/packages/energia/tools/arm-none-eabi-gcc/4.8.4-20140725/bin/../lib/gcc/arm-none-eabi/4.8.4/../../../../arm-none-eabi/lib/armv7e-m/fpu\libm.a
LOAD c:/users/kira kira/appdata/local/energia15/packages/energia/tools/arm-none-eabi-gcc/4.8.4-20140725/bin/../lib/gcc/arm-none-eabi/4.8.4/../../../../arm-none-eabi/lib/armv7e-m/fpu\libc.a
LOAD c:/users/kira kira/appdata/local/energia15/packages/energia/tools/arm-none-eabi-gcc/4.8.4-20140725/bin/../lib/gcc/arm-none-eabi/4.8.4/armv7e-m/fpu\libgcc.a
END GROUP
OUTPUT(AnalogInOutSerial.out elf32-littlearm)

.debug_info     0x00000000     0x1e45
 .debug_info    0x00000000      0x1a1 ./LIB/UART.o
 .debug_info    0x000001a1      0x368 ./main.o
 .debug_info    0x00000509      0x94c C:/Users/Kira Kira/workspace_v7/EK-TM4C123GXL_core/Debug\libEK-TM4C123GXL_core.a(startup_gcc.o)
 .debug_info    0x00000e55      0x6fb C:/Users/Kira Kira/workspace_v7/EK-TM4C123GXL_core/Debug\libEK-TM4C123GXL_core.a(WInterrupts.o)
 .debug_info    0x00001550      0x594 C:/Users/Kira Kira/workspace_v7/EK-TM4C123GXL_core/Debug\libEK-TM4C123GXL_core.a(wiring.o)
 .debug_info    0x00001ae4      0x361 C:/Users/Kira Kira/workspace_v7/EK-TM4C123GXL_core/Debug\libEK-TM4C123GXL_core.a(main.o)

.debug_abbrev   0x00000000      0x70d
 .debug_abbrev  0x00000000      0x128 ./LIB/UART.o
 .debug_abbrev  0x00000128       0xa3 ./main.o
 .debug_abbrev  0x000001cb      0x1d6 C:/Users/Kira Kira/workspace_v7/EK-TM4C123GXL_core/Debug\libEK-TM4C123GXL_core.a(startup_gcc.o)
 .debug_abbrev  0x000003a1      0x14d C:/Users/Kira Kira/workspace_v7/EK-TM4C123GXL_core/Debug\libEK-TM4C123GXL_core.a(WInterrupts.o)
 .debug_abbrev  0x000004ee      0x19a C:/Users/Kira Kira/workspace_v7/EK-TM4C123GXL_core/Debug\libEK-TM4C123GXL_core.a(wiring.o)
 .debug_abbrev  0x00000688       0x85 C:/Users/Kira Kira/workspace_v7/EK-TM4C123GXL_core/Debug\libEK-TM4C123GXL_core.a(main.o)

.debug_loc      0x00000000      0x4c9
 .debug_loc     0x00000000       0x9e ./LIB/UART.o
 .debug_loc     0x0000009e       0x29 ./main.o
 .debug_loc     0x000000c7       0xf2 C:/Users/Kira Kira/workspace_v7/EK-TM4C123GXL_core/Debug\libEK-TM4C123GXL_core.a(startup_gcc.o)
 .debug_loc     0x000001b9      0x244 C:/Users/Kira Kira/workspace_v7/EK-TM4C123GXL_core/Debug\libEK-TM4C123GXL_core.a(WInterrupts.o)
 .debug_loc     0x000003fd       0xcc C:/Users/Kira Kira/workspace_v7/EK-TM4C123GXL_core/Debug\libEK-TM4C123GXL_core.a(wiring.o)

.debug_aranges  0x00000000      0x278
 .debug_aranges
                0x00000000       0x40 ./LIB/UART.o
 .debug_aranges
                0x00000040       0x20 ./main.o
 .debug_aranges
                0x00000060       0xd8 C:/Users/Kira Kira/workspace_v7/EK-TM4C123GXL_core/Debug\libEK-TM4C123GXL_core.a(startup_gcc.o)
 .debug_aranges
                0x00000138       0xa8 C:/Users/Kira Kira/workspace_v7/EK-TM4C123GXL_core/Debug\libEK-TM4C123GXL_core.a(WInterrupts.o)
 .debug_aranges
                0x000001e0       0x70 C:/Users/Kira Kira/workspace_v7/EK-TM4C123GXL_core/Debug\libEK-TM4C123GXL_core.a(wiring.o)
 .debug_aranges
                0x00000250       0x28 C:/Users/Kira Kira/workspace_v7/EK-TM4C123GXL_core/Debug\libEK-TM4C123GXL_core.a(main.o)

.debug_ranges   0x00000000      0x260
 .debug_ranges  0x00000000       0x48 ./LIB/UART.o
 .debug_ranges  0x00000048       0x10 ./main.o
 .debug_ranges  0x00000058       0xc8 C:/Users/Kira Kira/workspace_v7/EK-TM4C123GXL_core/Debug\libEK-TM4C123GXL_core.a(startup_gcc.o)
 .debug_ranges  0x00000120       0x98 C:/Users/Kira Kira/workspace_v7/EK-TM4C123GXL_core/Debug\libEK-TM4C123GXL_core.a(WInterrupts.o)
 .debug_ranges  0x000001b8       0x90 C:/Users/Kira Kira/workspace_v7/EK-TM4C123GXL_core/Debug\libEK-TM4C123GXL_core.a(wiring.o)
 .debug_ranges  0x00000248       0x18 C:/Users/Kira Kira/workspace_v7/EK-TM4C123GXL_core/Debug\libEK-TM4C123GXL_core.a(main.o)

.debug_line     0x00000000     0x11d5
 .debug_line    0x00000000      0x1b8 ./LIB/UART.o
 .debug_line    0x000001b8      0x1e9 ./main.o
 .debug_line    0x000003a1      0x474 C:/Users/Kira Kira/workspace_v7/EK-TM4C123GXL_core/Debug\libEK-TM4C123GXL_core.a(startup_gcc.o)
 .debug_line    0x00000815      0x3da C:/Users/Kira Kira/workspace_v7/EK-TM4C123GXL_core/Debug\libEK-TM4C123GXL_core.a(WInterrupts.o)
 .debug_line    0x00000bef      0x37d C:/Users/Kira Kira/workspace_v7/EK-TM4C123GXL_core/Debug\libEK-TM4C123GXL_core.a(wiring.o)
 .debug_line    0x00000f6c      0x269 C:/Users/Kira Kira/workspace_v7/EK-TM4C123GXL_core/Debug\libEK-TM4C123GXL_core.a(main.o)

.debug_str      0x00000000      0xc90
 .debug_str     0x00000000      0x2af ./LIB/UART.o
                                0x2f8 (size before relaxing)
 .debug_str     0x000002af      0x107 ./main.o
                                0x32e (size before relaxing)
 .debug_str     0x000003b6      0x47e C:/Users/Kira Kira/workspace_v7/EK-TM4C123GXL_core/Debug\libEK-TM4C123GXL_core.a(startup_gcc.o)
                                0x650 (size before relaxing)
 .debug_str     0x00000834      0x279 C:/Users/Kira Kira/workspace_v7/EK-TM4C123GXL_core/Debug\libEK-TM4C123GXL_core.a(WInterrupts.o)
                                0x5a3 (size before relaxing)
 .debug_str     0x00000aad      0x169 C:/Users/Kira Kira/workspace_v7/EK-TM4C123GXL_core/Debug\libEK-TM4C123GXL_core.a(wiring.o)
                                0x462 (size before relaxing)
 .debug_str     0x00000c16       0x7a C:/Users/Kira Kira/workspace_v7/EK-TM4C123GXL_core/Debug\libEK-TM4C123GXL_core.a(main.o)
                                0x3a6 (size before relaxing)

.comment        0x00000000       0x70
 .comment       0x00000000       0x70 ./LIB/UART.o
                                 0x71 (size before relaxing)
 .comment       0x00000000       0x71 ./main.o
 .comment       0x00000000       0x71 C:/Users/Kira Kira/workspace_v7/EK-TM4C123GXL_core/Debug\libEK-TM4C123GXL_core.a(startup_gcc.o)
 .comment       0x00000000       0x71 C:/Users/Kira Kira/workspace_v7/EK-TM4C123GXL_core/Debug\libEK-TM4C123GXL_core.a(WInterrupts.o)
 .comment       0x00000000       0x71 C:/Users/Kira Kira/workspace_v7/EK-TM4C123GXL_core/Debug\libEK-TM4C123GXL_core.a(wiring.o)
 .comment       0x00000000       0x71 C:/Users/Kira Kira/workspace_v7/EK-TM4C123GXL_core/Debug\libEK-TM4C123GXL_core.a(main.o)
 .comment       0x00000000       0x71 C:/Users/Kira Kira/AppData/Local/Energia15/packages/energia/hardware/tivac/1.0.2/system/driverlib\libdriverlib.a(eeprom.o)
 .comment       0x00000000       0x71 C:/Users/Kira Kira/AppData/Local/Energia15/packages/energia/hardware/tivac/1.0.2/system/driverlib\libdriverlib.a(gpio.o)
 .comment       0x00000000       0x71 C:/Users/Kira Kira/AppData/Local/Energia15/packages/energia/hardware/tivac/1.0.2/system/driverlib\libdriverlib.a(sysctl.o)
 .comment       0x00000000       0x71 C:/Users/Kira Kira/AppData/Local/Energia15/packages/energia/hardware/tivac/1.0.2/system/driverlib\libdriverlib.a(uart.o)

.ARM.attributes
                0x00000000       0x39
 .ARM.attributes
                0x00000000       0x39 ./LIB/UART.o
 .ARM.attributes
                0x00000039       0x39 ./main.o
 .ARM.attributes
                0x00000072       0x39 C:/Users/Kira Kira/workspace_v7/EK-TM4C123GXL_core/Debug\libEK-TM4C123GXL_core.a(startup_gcc.o)
 .ARM.attributes
                0x000000ab       0x39 C:/Users/Kira Kira/workspace_v7/EK-TM4C123GXL_core/Debug\libEK-TM4C123GXL_core.a(WInterrupts.o)
 .ARM.attributes
                0x000000e4       0x39 C:/Users/Kira Kira/workspace_v7/EK-TM4C123GXL_core/Debug\libEK-TM4C123GXL_core.a(wiring.o)
 .ARM.attributes
                0x0000011d       0x39 C:/Users/Kira Kira/workspace_v7/EK-TM4C123GXL_core/Debug\libEK-TM4C123GXL_core.a(main.o)
 .ARM.attributes
                0x00000156       0x39 C:/Users/Kira Kira/AppData/Local/Energia15/packages/energia/hardware/tivac/1.0.2/system/driverlib\libdriverlib.a(eeprom.o)
 .ARM.attributes
                0x0000018f       0x39 C:/Users/Kira Kira/AppData/Local/Energia15/packages/energia/hardware/tivac/1.0.2/system/driverlib\libdriverlib.a(gpio.o)
 .ARM.attributes
                0x000001c8       0x39 C:/Users/Kira Kira/AppData/Local/Energia15/packages/energia/hardware/tivac/1.0.2/system/driverlib\libdriverlib.a(sysctl.o)
 .ARM.attributes
                0x00000201       0x39 C:/Users/Kira Kira/AppData/Local/Energia15/packages/energia/hardware/tivac/1.0.2/system/driverlib\libdriverlib.a(uart.o)

.debug_frame    0x00000000      0x518
 .debug_frame   0x00000000       0x84 ./LIB/UART.o
 .debug_frame   0x00000084       0x2c ./main.o
 .debug_frame   0x000000b0      0x1a0 C:/Users/Kira Kira/workspace_v7/EK-TM4C123GXL_core/Debug\libEK-TM4C123GXL_core.a(startup_gcc.o)
 .debug_frame   0x00000250      0x158 C:/Users/Kira Kira/workspace_v7/EK-TM4C123GXL_core/Debug\libEK-TM4C123GXL_core.a(WInterrupts.o)
 .debug_frame   0x000003a8      0x130 C:/Users/Kira Kira/workspace_v7/EK-TM4C123GXL_core/Debug\libEK-TM4C123GXL_core.a(wiring.o)
 .debug_frame   0x000004d8       0x40 C:/Users/Kira Kira/workspace_v7/EK-TM4C123GXL_core/Debug\libEK-TM4C123GXL_core.a(main.o)
